{"abi":[{"type":"constructor","inputs":[{"name":"_conditionalTokens","type":"address","internalType":"address"},{"name":"_wrapped1155Factory","type":"address","internalType":"address"}],"stateMutability":"nonpayable"},{"type":"function","name":"conditionalTokens","inputs":[],"outputs":[{"name":"","type":"address","internalType":"contract IConditionalTokens"}],"stateMutability":"view"},{"type":"function","name":"getWrappedTokens","inputs":[{"name":"collateralToken","type":"address","internalType":"contract IERC20"},{"name":"conditionId","type":"bytes32","internalType":"bytes32"},{"name":"outcomeCount","type":"uint256","internalType":"uint256"}],"outputs":[{"name":"addresses","type":"address[]","internalType":"address[]"}],"stateMutability":"view"},{"type":"function","name":"redeemPositions","inputs":[{"name":"collateralToken","type":"address","internalType":"contract IERC20"},{"name":"conditionId","type":"bytes32","internalType":"bytes32"},{"name":"amounts","type":"uint256[]","internalType":"uint256[]"},{"name":"outcomeCount","type":"uint256","internalType":"uint256"}],"outputs":[{"name":"payoutAmount","type":"uint256","internalType":"uint256"}],"stateMutability":"nonpayable"},{"type":"function","name":"splitCollateralTokens","inputs":[{"name":"collateralToken","type":"address","internalType":"contract IERC20"},{"name":"conditionId","type":"bytes32","internalType":"bytes32"},{"name":"amount","type":"uint256","internalType":"uint256"},{"name":"outcomeCount","type":"uint256","internalType":"uint256"}],"outputs":[{"name":"wrappedTokens","type":"address[]","internalType":"address[]"}],"stateMutability":"nonpayable"},{"type":"function","name":"wrapped1155Factory","inputs":[],"outputs":[{"name":"","type":"address","internalType":"contract IWrapped1155Factory"}],"stateMutability":"view"},{"type":"error","name":"ConditionNotResolved","inputs":[]},{"type":"error","name":"InvalidOutcomeCount","inputs":[{"name":"count","type":"uint256","internalType":"uint256"}]},{"type":"error","name":"RedemptionFailed","inputs":[]},{"type":"error","name":"SafeERC20FailedOperation","inputs":[{"name":"token","type":"address","internalType":"address"}]},{"type":"error","name":"WrappingFailed","inputs":[]}],"bytecode":{"object":"0x60c03461010957601f61157138819003918201601f19168301916001600160401b0383118484101761010d57808492604094855283398101031261010957610052602061004b83610121565b9201610121565b6001600160a01b039182166080521660a05260405161143b9081610136823960805181818160c90152818161013b015281816101b00152818161036a015281816103d3015281816104660152818161067e015281816106ca0152818161073d015281816107d40152818161083d015281816108d401528181610abf01528181610b8a01528181610bf30152610c62015260a051818181610421015281816104b80152818161090a01528181610c970152610da70152f35b5f80fd5b634e487b7160e01b5f52604160045260245ffd5b51906001600160a01b03821682036101095756fe6080806040526004361015610012575f80fd5b5f90813560e01c908163150c5b9714610d93575080632d0bf25314610aee5780635bd9e29914610aa95780635be6914b146105dc5763f2eed99c14610055575f80fd5b346105d95760803660031901126105d95761006e610dd6565b906044359167ffffffffffffffff8084116102d257366023850112156102d2578360040135116102d657366024846004013560051b850101116102d65760405163dd34de6760e01b81526024803560048301526020908290817f00000000000000000000000000000000000000000000000000000000000000006001600160a01b03165afa9081156105ce57839161059c575b501561058a57610112606435610ead565b92825b60643581106102fe57505061012b606435610ead565b92825b60643581106102da5750507f00000000000000000000000000000000000000000000000000000000000000006001600160a01b03163b156102d657604051626dc0df60e21b8152828082806101ab60018060a01b038716988960048401528460248401526024356044840152608060648401526084830190610fa9565b0381837f00000000000000000000000000000000000000000000000000000000000000006001600160a01b03165af191826102be575b50506101f957604051632b82e89360e01b8152600490fd5b6020602493604051948580926370a0823160e01b82523060048301525afa9182156102b25791610279575b6020925081610237575b50604051908152f35b60405163a9059cbb60e01b84820152336024820152604481018390526102739161026e82606481015b03601f198101845283610e73565b610fdc565b5f61022e565b90506020823d6020116102aa575b8161029460209383610e73565b810103126102a6576020915190610224565b5f80fd5b3d9150610287565b604051903d90823e3d90fd5b6102c790610e2f565b6102d257825f6101e1565b8280fd5b5080fd5b806102e86102f99284610f01565b516102f38288610f01565b52610edf565b61012e565b6001811b61030c8287610f01565b5261031f81836004013560248501611041565b35610333575b61032e90610edf565b610115565b61033d8186610f01565b5160405163856296f760e01b815260048101869052602480359082015260448101919091526020816064817f00000000000000000000000000000000000000000000000000000000000000006001600160a01b03165afa90811561054c578591610557575b5060405163039dd75360e41b81526001600160a01b03851660048201526024810191909152602081806044810103817f00000000000000000000000000000000000000000000000000000000000000006001600160a01b03165afa90811561054c57859161051a575b5061041e82846004013560248601611041565b357f00000000000000000000000000000000000000000000000000000000000000006001600160a01b03163b1561051657604051916314abb2c960e21b835260018060a01b037f00000000000000000000000000000000000000000000000000000000000000001660048401526024830152604482015230606482015260a060848201528460a482015284808260c4818360018060a01b037f0000000000000000000000000000000000000000000000000000000000000000165af191826104fe575b50506104f95760405163bd2f3ffb60e01b8152600490fd5b610325565b61050790610e2f565b61051257845f6104e1565b8480fd5b8580fd5b90506020813d602011610544575b8161053560209383610e73565b810103126102a657515f61040b565b3d9150610528565b6040513d87823e3d90fd5b90506020813d602011610582575b8161057260209383610e73565b810103126102a6575160206103a2565b3d9150610565565b6040516314566b5f60e11b8152600490fd5b90506020813d6020116105c6575b816105b760209383610e73565b810103126102a657515f610101565b3d91506105aa565b6040513d85823e3d90fd5b80fd5b50346105d95760803660031901126105d9576105f6610dd6565b6001806064351115610a8f5761060d606435610ead565b90835b6064358110610a795750506040516323b872dd60e01b602082015233602482015230604482015260443560648201526064815260a0810181811067ffffffffffffffff821117610a65576040526106679083610fdc565b60405163095ea7b360e01b81526001600160a01b037f000000000000000000000000000000000000000000000000000000000000000081166004830152604480356024840152908416919060209082908188865af1801561054c57610a2d575b507f00000000000000000000000000000000000000000000000000000000000000006001600160a01b03163b15610a2957604051906372ce427560e01b82526004820152836024820152602435604482015260a0606482015283818061073060a4820186610fa9565b60443560848301520381837f00000000000000000000000000000000000000000000000000000000000000006001600160a01b03165af18015610a1e57610a0b575b5061077e606435610ead565b91835b606435811061079c57604051806107988682610dec565b0390f35b6107a68184610f01565b5160405163856296f760e01b81526004810187905260248035908201526044810191909152906020826064817f00000000000000000000000000000000000000000000000000000000000000006001600160a01b03165afa9182156109965786926109d6575b5060405163039dd75360e41b81526001600160a01b03841660048201526024810192909252602082806044810103817f00000000000000000000000000000000000000000000000000000000000000006001600160a01b03165afa9182156109965786926109a1575b5060206109059261088960643584876110df565b906108c061089a60643586896112a1565b604080518681019586526020860192909252600960f91b90850152928390604101610260565b604051631892c08760e11b815294859283927f00000000000000000000000000000000000000000000000000000000000000006001600160a01b031660048501610f69565b0381897f00000000000000000000000000000000000000000000000000000000000000006001600160a01b03165af1801561099657610962928791610967575b506109508287610f01565b6001600160a01b039091169052610edf565b610781565b610989915060203d60201161098f575b6109818183610e73565b810190610f29565b5f610945565b503d610977565b6040513d88823e3d90fd5b91506020823d6020116109ce575b816109bc60209383610e73565b810103126102a6579051906020610875565b3d91506109af565b91506020823d602011610a03575b816109f160209383610e73565b810103126102a657905190602061080c565b3d91506109e4565b610a1790939193610e2f565b915f610772565b6040513d86823e3d90fd5b8380fd5b6020813d602011610a5d575b81610a4660209383610e73565b81010312610512575180151503610a29575f6106c7565b3d9150610a39565b634e487b7160e01b85526041600452602485fd5b8082610a8a921b6102f38286610f01565b610610565b604051635c4f1bf560e11b81526064356004820152602490fd5b50346105d957806003193601126105d9576040517f00000000000000000000000000000000000000000000000000000000000000006001600160a01b03168152602090f35b50346105d95760603660031901126105d957610b08610dd6565b604490600182351115610d7a57610b1f8235610ead565b91610b2a8135610ead565b91602490855b83358110610b4657604051806107988882610dec565b6001811b610b548287610f01565b52610b5f8186610f01565b5160405163856296f760e01b81526004810189905284358582015285810191909152906020826064817f00000000000000000000000000000000000000000000000000000000000000006001600160a01b03165afa918215610d01578892610d45575b5060405163039dd75360e41b81526001600160a01b03841660048201526024810192909252602082806044810103817f00000000000000000000000000000000000000000000000000000000000000006001600160a01b03165afa918215610d01578892610d0c575b506020610c9392610c3e873584876110df565b90610c4e61089a893586896112a1565b604051630459752f60e11b815294859283927f00000000000000000000000000000000000000000000000000000000000000006001600160a01b031660048501610f69565b03817f00000000000000000000000000000000000000000000000000000000000000006001600160a01b03165afa8015610d0157610cdd928991610ce2575b506109508289610f01565b610b30565b610cfb915060203d60201161098f576109818183610e73565b5f610cd2565b6040513d8a823e3d90fd5b91506020823d602011610d3d575b81610d2760209383610e73565b81010312610d39579051906020610c2b565b8780fd5b3d9150610d1a565b91506020823d602011610d72575b81610d6060209383610e73565b81010312610d39579051906020610bc2565b3d9150610d53565b604051635c4f1bf560e11b815282356004820152602490fd5b9050346102d657816003193601126102d6577f00000000000000000000000000000000000000000000000000000000000000006001600160a01b03168152602090f35b600435906001600160a01b03821682036102a657565b602090816040818301928281528551809452019301915f5b828110610e12575050505090565b83516001600160a01b031685529381019392810192600101610e04565b67ffffffffffffffff8111610e4357604052565b634e487b7160e01b5f52604160045260245ffd5b6040810190811067ffffffffffffffff821117610e4357604052565b90601f8019910116810190811067ffffffffffffffff821117610e4357604052565b67ffffffffffffffff8111610e435760051b60200190565b90610eb782610e95565b610ec46040519182610e73565b8281528092610ed5601f1991610e95565b0190602036910137565b5f198114610eed5760010190565b634e487b7160e01b5f52601160045260245ffd5b8051821015610f155760209160051b010190565b634e487b7160e01b5f52603260045260245ffd5b908160209103126102a657516001600160a01b03811681036102a65790565b5f5b838110610f595750505f910152565b8181015183820152602001610f4a565b916080939160018060a01b03168352602083015260606040830152610f9d8151809281606086015260208686019101610f48565b601f01601f1916010190565b9081518082526020808093019301915f5b828110610fc8575050505090565b835185529381019392810192600101610fba565b905f602091828151910182855af115611036575f513d61102d57506001600160a01b0381163b155b61100b5750565b604051635274afe760e01b81526001600160a01b039091166004820152602490fd5b60011415611004565b6040513d5f823e3d90fd5b9190811015610f155760051b0190565b6020818303126102a657805167ffffffffffffffff918282116102a657019082601f830112156102a6578151908111610e43576040519261109c601f8301601f191660200185610e73565b818452602082840101116102a6576110ba9160208085019101610f48565b90565b6020815191015190602081106110d1575090565b5f199060200360031b1b1690565b604080516306fdde0360e01b8152935f928390869060049082906001600160a01b03165afa94851561129557839561126e575b506002146111d95780519161112683610e57565b6001835260208301936020368637604101806041116111c5578351156111b157936111ac936029936110ba979361119d9760ff60f81b9060f81b16901a835351958361117c889551809260208089019101610f48565b8401916801027baba31b7b6b2960bd1b602084015251809386840190610f48565b01036009810184520182610e73565b6110bd565b634e487b7160e01b82526032600452602482fd5b634e487b7160e01b82526011600452602482fd5b929160011415905061122a576111ac602d6110ba935183611204829551809260208086019101610f48565b81016c102cb2b9902837b9b4ba34b7b760991b602082015203600d810184520182610e73565b6111ac602c6110ba935183611249829551809260208086019101610f48565b81016b102737902837b9b4ba34b7b760a11b602082015203600c810184520182610e73565b600291955061128e903d8086833e6112868183610e73565b810190611051565b9490611112565b505051903d90823e3d90fd5b604080516395d89b4160e01b8152935f928390869060049082906001600160a01b03165afa9485156112955783956113e6575b50600214611366578051916112e883610e57565b6001835260208301936020368637604101806041116111c5578351156111b157936111ac936021936110ba97936113579760ff60f81b9060f81b16901a835351958361133e889551809260208089019101610f48565b840191602d60f81b602084015251809386840190610f48565b01036001810184520182610e73565b92916001141590506113ac576111ac60226110ba935183611391829551809260208086019101610f48565b8101612d5960f01b6020820152036002810184520182610e73565b6111ac60226110ba9351836113cb829551809260208086019101610f48565b81016116a760f11b6020820152036002810184520182610e73565b60029195506113fe903d8086833e6112868183610e73565b94906112d456fea264697066735822122078531f6bc65aee06e901cbfd096a425e2699fbd501e9c9b527dae749e6691b6c64736f6c63430008140033","linkReferences":{}},"methodIdentifiers":{"conditionalTokens()":"5bd9e299","getWrappedTokens(address,bytes32,uint256)":"2d0bf253","redeemPositions(address,bytes32,uint256[],uint256)":"f2eed99c","splitCollateralTokens(address,bytes32,uint256,uint256)":"5be6914b","wrapped1155Factory()":"150c5b97"},"id":15}