{"abi":[{"type":"constructor","inputs":[],"stateMutability":"nonpayable"},{"type":"function","name":"failureProbability","inputs":[],"outputs":[{"name":"","type":"uint256","internalType":"uint256"}],"stateMutability":"view"},{"type":"function","name":"isConditionProcessed","inputs":[{"name":"conditionId","type":"bytes32","internalType":"bytes32"}],"outputs":[{"name":"","type":"bool","internalType":"bool"}],"stateMutability":"view"},{"type":"function","name":"owner","inputs":[],"outputs":[{"name":"","type":"address","internalType":"address"}],"stateMutability":"view"},{"type":"function","name":"renounceOwnership","inputs":[],"outputs":[],"stateMutability":"nonpayable"},{"type":"function","name":"requestRandomFailureCheck","inputs":[{"name":"conditionId","type":"bytes32","internalType":"bytes32"}],"outputs":[],"stateMutability":"nonpayable"},{"type":"function","name":"setFailureProbability","inputs":[{"name":"_failureProbability","type":"uint256","internalType":"uint256"}],"outputs":[],"stateMutability":"nonpayable"},{"type":"function","name":"shouldProposalFail","inputs":[{"name":"conditionId","type":"bytes32","internalType":"bytes32"}],"outputs":[{"name":"","type":"bool","internalType":"bool"}],"stateMutability":"view"},{"type":"function","name":"transferOwnership","inputs":[{"name":"newOwner","type":"address","internalType":"address"}],"outputs":[],"stateMutability":"nonpayable"},{"type":"event","name":"OwnershipTransferred","inputs":[{"name":"previousOwner","type":"address","indexed":true,"internalType":"address"},{"name":"newOwner","type":"address","indexed":true,"internalType":"address"}],"anonymous":false},{"type":"event","name":"RandomFailureRequested","inputs":[{"name":"conditionId","type":"bytes32","indexed":true,"internalType":"bytes32"},{"name":"timestamp","type":"uint256","indexed":false,"internalType":"uint256"}],"anonymous":false},{"type":"event","name":"RandomFailureResult","inputs":[{"name":"conditionId","type":"bytes32","indexed":true,"internalType":"bytes32"},{"name":"failed","type":"bool","indexed":false,"internalType":"bool"}],"anonymous":false},{"type":"error","name":"OwnableInvalidOwner","inputs":[{"name":"owner","type":"address","internalType":"address"}]},{"type":"error","name":"OwnableUnauthorizedAccount","inputs":[{"name":"account","type":"address","internalType":"address"}]}],"bytecode":{"object":"0x6080806040523461007e573315610069575f8054336001600160a01b03198216811783556040519290916001600160a01b0316907f8be0079c531659141344cd1fd0a4f28419497f9722a3daafe3b4186f6b6457e09080a36101f460015561049f90816100838239f35b631e4fbdf760e01b81525f6004820152602490fd5b5f80fdfe6080604081815260049081361015610015575f80fd5b5f92833560e01c908163213d9d9c146102d85750806341945da7146102505780635d9f378614610231578063715018a6146101d45780638da5cb5b146101a8578063991abbda14610136578063d96c0c57146101095763f2fde38b14610079575f80fd5b34610105576020366003190112610105576001600160a01b03823581811693919290849003610101576100aa61043e565b83156100eb57505082546001600160a01b0319811683178455167f8be0079c531659141344cd1fd0a4f28419497f9722a3daafe3b4186f6b6457e08380a380f35b51631e4fbdf760e01b8152908101849052602490fd5b8480fd5b8280fd5b509034610105576020366003190112610105578160209360ff923581526003855220541690519015158152f35b5090346101055760203660031901126101055780359161015461043e565b612710831161016557505060015580f35b906020606492519162461bcd60e51b8352820152601c60248201527f50726f626162696c697479206d757374206265203c3d203130303030000000006044820152fd5b8382346101d057816003193601126101d057905490516001600160a01b039091168152602090f35b5080fd5b833461022e578060031936011261022e576101ed61043e565b80546001600160a01b03198116825581906001600160a01b03167f8be0079c531659141344cd1fd0a4f28419497f9722a3daafe3b4186f6b6457e08280a380f35b80fd5b8382346101d057816003193601126101d0576020906001549051908152f35b509190346101d05760203660031901126101d057803590818352600360205260ff8484205416156102955760208460ff81868681526002855220541690519015158152f35b606490602085519162461bcd60e51b8352820152601760248201527f436f6e646974696f6e206e6f742070726f6365737365640000000000000000006044820152fd5b9050839134610105576020908160031936011261043a578435928385526003835260ff82862054166103f95750828452600382528084209060ff19916001838254161790555f1943014381116103e65781519084820190408152428383015285606083015260608252608082019180831067ffffffffffffffff8411176103d357858361271089947f196dd9d9ce31fb5d7b4841e1b5e7876af0097659255fddfd848269b51a070c929488977f755bbcab826af67e7d89929a44854bd3111ec475bb78e2c76861633a87d343009b9a9952519020066001541195848b5260028352858b209081541660ff8816179055428152a251908152a280f35b634e487b7160e01b885260418952602488fd5b634e487b7160e01b865260118752602486fd5b62461bcd60e51b8152858101839052601b60248201527f436f6e646974696f6e20616c72656164792070726f63657373656400000000006044820152606490fd5b8380fd5b5f546001600160a01b0316330361045157565b60405163118cdaa760e01b8152336004820152602490fdfea26469706673582212209b22a16b985fedeaad8d3f11feaef7d4e80f91bb1ab677f28d449e3281e0351b64736f6c63430008140033","linkReferences":{}},"methodIdentifiers":{"failureProbability()":"5d9f3786","isConditionProcessed(bytes32)":"d96c0c57","owner()":"8da5cb5b","renounceOwnership()":"715018a6","requestRandomFailureCheck(bytes32)":"213d9d9c","setFailureProbability(uint256)":"991abbda","shouldProposalFail(bytes32)":"41945da7","transferOwnership(address)":"f2fde38b"},"id":14}