{"abi":[{"type":"constructor","inputs":[{"name":"_randomFailure","type":"address","internalType":"address"},{"name":"_conditionalTokens","type":"address","internalType":"address"}],"stateMutability":"nonpayable"},{"type":"function","name":"PASS_THRESHOLD","inputs":[],"outputs":[{"name":"","type":"uint256","internalType":"uint256"}],"stateMutability":"view"},{"type":"function","name":"TWAP_PERIOD","inputs":[],"outputs":[{"name":"","type":"uint32","internalType":"uint32"}],"stateMutability":"view"},{"type":"function","name":"checkLiquidity","inputs":[{"name":"conditionId","type":"bytes32","internalType":"bytes32"}],"outputs":[{"name":"","type":"bool","internalType":"bool"}],"stateMutability":"view"},{"type":"function","name":"checkLowLiquidityFailure","inputs":[{"name":"conditionId","type":"bytes32","internalType":"bytes32"}],"outputs":[],"stateMutability":"nonpayable"},{"type":"function","name":"completeResolution","inputs":[{"name":"conditionId","type":"bytes32","internalType":"bytes32"}],"outputs":[],"stateMutability":"nonpayable"},{"type":"function","name":"conditionalTokens","inputs":[],"outputs":[{"name":"","type":"address","internalType":"contract IConditionalTokens"}],"stateMutability":"view"},{"type":"function","name":"conditions","inputs":[{"name":"","type":"bytes32","internalType":"bytes32"}],"outputs":[{"name":"passPool","type":"address","internalType":"contract IUniswapV3Pool"},{"name":"failPool","type":"address","internalType":"contract IUniswapV3Pool"},{"name":"minLiquidity","type":"uint256","internalType":"uint256"},{"name":"createdAt","type":"uint256","internalType":"uint256"},{"name":"state","type":"uint8","internalType":"enum FutarchyOracle.ResolutionState"},{"name":"priceCheckPassed","type":"bool","internalType":"bool"}],"stateMutability":"view"},{"type":"function","name":"getConditionState","inputs":[{"name":"conditionId","type":"bytes32","internalType":"bytes32"}],"outputs":[{"name":"state","type":"uint8","internalType":"enum FutarchyOracle.ResolutionState"},{"name":"priceCheckPassed","type":"bool","internalType":"bool"},{"name":"hasLiquidity","type":"bool","internalType":"bool"},{"name":"createdAt","type":"uint256","internalType":"uint256"},{"name":"minLiquidity","type":"uint256","internalType":"uint256"}],"stateMutability":"view"},{"type":"function","name":"initializeCondition","inputs":[{"name":"conditionId","type":"bytes32","internalType":"bytes32"},{"name":"passPool","type":"address","internalType":"address"},{"name":"failPool","type":"address","internalType":"address"},{"name":"minLiquidity","type":"uint256","internalType":"uint256"}],"outputs":[],"stateMutability":"nonpayable"},{"type":"function","name":"owner","inputs":[],"outputs":[{"name":"","type":"address","internalType":"address"}],"stateMutability":"view"},{"type":"function","name":"performPriceCheck","inputs":[{"name":"conditionId","type":"bytes32","internalType":"bytes32"}],"outputs":[],"stateMutability":"nonpayable"},{"type":"function","name":"randomFailure","inputs":[],"outputs":[{"name":"","type":"address","internalType":"contract FutarchyRandomFailure"}],"stateMutability":"view"},{"type":"function","name":"renounceOwnership","inputs":[],"outputs":[],"stateMutability":"nonpayable"},{"type":"function","name":"requestRandomCheck","inputs":[{"name":"conditionId","type":"bytes32","internalType":"bytes32"}],"outputs":[],"stateMutability":"nonpayable"},{"type":"function","name":"transferOwnership","inputs":[{"name":"newOwner","type":"address","internalType":"address"}],"outputs":[],"stateMutability":"nonpayable"},{"type":"event","name":"ConditionInitialized","inputs":[{"name":"conditionId","type":"bytes32","indexed":true,"internalType":"bytes32"},{"name":"passPool","type":"address","indexed":false,"internalType":"address"},{"name":"failPool","type":"address","indexed":false,"internalType":"address"},{"name":"minLiquidity","type":"uint256","indexed":false,"internalType":"uint256"}],"anonymous":false},{"type":"event","name":"LowLiquidityFailure","inputs":[{"name":"conditionId","type":"bytes32","indexed":true,"internalType":"bytes32"},{"name":"passLiquidity","type":"uint256","indexed":false,"internalType":"uint256"},{"name":"failLiquidity","type":"uint256","indexed":false,"internalType":"uint256"}],"anonymous":false},{"type":"event","name":"OwnershipTransferred","inputs":[{"name":"previousOwner","type":"address","indexed":true,"internalType":"address"},{"name":"newOwner","type":"address","indexed":true,"internalType":"address"}],"anonymous":false},{"type":"event","name":"PriceCheckCompleted","inputs":[{"name":"conditionId","type":"bytes32","indexed":true,"internalType":"bytes32"},{"name":"passed","type":"bool","indexed":false,"internalType":"bool"},{"name":"passPrice","type":"uint256","indexed":false,"internalType":"uint256"},{"name":"failPrice","type":"uint256","indexed":false,"internalType":"uint256"}],"anonymous":false},{"type":"event","name":"ProposalResolved","inputs":[{"name":"conditionId","type":"bytes32","indexed":true,"internalType":"bytes32"},{"name":"passed","type":"bool","indexed":false,"internalType":"bool"},{"name":"reason","type":"string","indexed":false,"internalType":"string"}],"anonymous":false},{"type":"event","name":"RandomFailureRequested","inputs":[{"name":"conditionId","type":"bytes32","indexed":true,"internalType":"bytes32"}],"anonymous":false},{"type":"error","name":"OwnableInvalidOwner","inputs":[{"name":"owner","type":"address","internalType":"address"}]},{"type":"error","name":"OwnableUnauthorizedAccount","inputs":[{"name":"account","type":"address","internalType":"address"}]}],"bytecode":{"object":"0x60c03461010857601f61156038819003918201601f19168301916001600160401b0383118484101761010c57808492604094855283398101031261010857610052602061004b83610120565b9201610120565b9033156100f0575f8054336001600160a01b0319821681178355604051946001600160a01b0394909385939192918416907f8be0079c531659141344cd1fd0a4f28419497f9722a3daafe3b4186f6b6457e09080a3166080521660a05261142b9081610135823960805181818161077b01528181610a8c0152610c40015260a0518181816102770152818161043c01528181610a0d0152610cb20152f35b604051631e4fbdf760e01b81525f6004820152602490fd5b5f80fd5b634e487b7160e01b5f52604160045260245ffd5b51906001600160a01b03821682036101085756fe604060808152600480361015610013575f80fd5b5f91823560e01c80631ecbb4ce14610bd1578063336c512214610b6657806333f78d5914610b495780634a51796e14610a3c5780635bd9e299146109f85780636d93149a146109cf578063715018a6146109735780637ca25184146109555780638207cd1d146107aa5780638cde4f67146107665780638da5cb5b1461073a57806394dfeed0146106c6578063a88fd4e6146103a0578063c5d983d3146101595763f2fde38b146100c2575f80fd5b34610155576020366003190112610155576001600160a01b03823581811693919290849003610151576100f3610e7f565b831561013b5750505f54826bffffffffffffffffffffffff60a01b8216175f55167f8be0079c531659141344cd1fd0a4f28419497f9722a3daafe3b4186f6b6457e05f80a380f35b51631e4fbdf760e01b8152908101849052602490fd5b5f80fd5b8280fd5b50346101555760203660031901126101555781359182845260016020528184209060038201549061018b82151561103d565b8083019260ff8454168281101561038d576101a69015611139565b6101ca60018060a01b03938460016101c18383875416611175565b94015416611175565b9061271080820290828204148215171561037a576127749081840291848304148415171561036757865461ff00191691111560081b61ff00161785558793929190877f7893b52e8dee80a3ebd437e65410dbb12912b863f6ee3750bca513e058b6b56d60608854948a519060ff8760081c1615958615835260208301528b820152a215610354575084519161025e83610ed2565b60028352853660208501376001610274846110c5565b527f00000000000000000000000000000000000000000000000000000000000000001691823b15610346576102c19287858094895196879586948593633124a62b60e21b855284016110f6565b03925af1801561034a57610332575b50507f3676ff42c1d36098de2b2393aaafe296ae82b095a911a5b16bd31ca62bd8ee0d91608091600360ff198254161790556012815191868352806020840152820152714661696c656420707269636520636865636b60701b6060820152a280f35b61033b90610eaa565b61034657835f6102d0565b8380fd5b84513d84823e3d90fd5b60ff191660011790935550849350505050f35b634e487b7160e01b8a526011855260248afd5b634e487b7160e01b895260118452602489fd5b634e487b7160e01b885260218352602488fd5b50346101555760209081600319360112610346578235928385526001835281852060038101546103d181151561103d565b8282019081549060ff8216858110156106b357610672576103f190611089565b42101561062f5761040187610f4b565b6105f55760ff19166003179055825161041981610ed2565b60028152833686830137600161042e826110c5565b526001600160a01b039087907f00000000000000000000000000000000000000000000000000000000000000008316803b15610155576104869183918a838a51809681958294633124a62b60e21b84528d84016110f6565b03925af180156105eb576105d3575b5050808254169084519286848681630d34328160e11b968782525afa9384156105c95790879392918a956105a7575b5060010154169385518095819382525afa91821561059d5792857f1fb4697fd98453f86e0acbea53f5532fdfde40185dad42a4b19fc8d843b0bfea827f3676ff42c1d36098de2b2393aaafe296ae82b095a911a5b16bd31ca62bd8ee0d9795600d956080988c9261056e575b508251916001600160801b0380921683521687820152a2808051938885528401528201526c4c6f77206c697175696469747960981b6060820152a280f35b61058f919250883d8a11610596575b6105878183610f0a565b810190610f2c565b905f610530565b503d61057d565b83513d88823e3d90fd5b60019195506105c290853d8711610596576105878183610f0a565b94906104c4565b86513d8b823e3d90fd5b6105dc90610eaa565b6105e757865f610495565b8680fd5b86513d84823e3d90fd5b845162461bcd60e51b8152808501879052601460248201527353756666696369656e74206c697175696469747960601b6044820152606490fd5b845162461bcd60e51b8152808501879052601c60248201527f546f6f206c61746520666f72206c697175696469747920636865636b000000006044820152606490fd5b606485888089519262461bcd60e51b845283015260248201527f43616e206f6e6c79206661696c206265666f726520707269636520636865636b6044820152fd5b634e487b7160e01b8a526021865260248afd5b5034610155576020366003190112610155578060ff9160c0948435815260016020522060018060a01b039384825416946001830154169260028301549160038401549301549381519687526020870152850152606084015261072d60808401838316610e5e565b60081c16151560a0820152f35b838234610762578160031936011261076257905490516001600160a01b039091168152602090f35b5080fd5b838234610762578160031936011261076257517f00000000000000000000000000000000000000000000000000000000000000006001600160a01b03168152602090f35b5034610155576080366003190112610155578135916001600160a01b0360243581811693919290849003610151576044359083821680920361015157606435936107f2610e7f565b86885260016020526003848920015461091c5783519060c0820182811067ffffffffffffffff8211176109095792889281928b95885289825260208201878152888301908a82526060840192428452808b608087019a808c5260a088019a818c528152600160205220955116906bffffffffffffffffffffffff60a01b9182875416178655600186019251169082541617905551600283015551600382015501925190808210156108f657508254915161ffff1990921660ff9091161790151560081b61ff00161790557f7306dc18fea21cd70916b482938390a9c936add803c1bb012f3e2377465414d6936060939092909181519384526020840152820152a280f35b634e487b7160e01b8a5260219052602489fd5b604184634e487b7160e01b5f525260245ffd5b835162461bcd60e51b81526020818401526013602482015272105b1c9958591e481a5b9a5d1a585b1a5e9959606a1b6044820152606490fd5b8382346107625781600319360112610762576020905162093a808152f35b83346109cc57806003193601126109cc5761098c610e7f565b5f80546001600160a01b0319811682556001600160a01b03167f8be0079c531659141344cd1fd0a4f28419497f9722a3daafe3b4186f6b6457e08280a380f35b80fd5b5082346109cc5760203660031901126109cc57506109ef60209235610f4b565b90519015158152f35b838234610762578160031936011261076257517f00000000000000000000000000000000000000000000000000000000000000006001600160a01b03168152602090f35b503461015557602036600319011261015557813591828452600160205280828520610a6c6003820154151561103d565b019160ff83541682811015610b365790610a8a600187949314611139565b7f00000000000000000000000000000000000000000000000000000000000000006001600160a01b031691823b15610346578560248592838551968794859363084f676760e21b85528401525af1908115610b2d5750610b19575b5050805460ff191660021790557fce225b1e95bbedf6641e3886963e4aba61da508fd44edd19ca9b9cca37494a9f8280a280f35b610b2290610eaa565b61015557825f610ae5565b513d84823e3d90fd5b634e487b7160e01b865260218352602486fd5b838234610762578160031936011261076257602090516127748152f35b508290346107625760203660031901126107625782610b978260a09535948581526001602052209182015493610f4b565b91600260038301549201549260ff825195610bb487838316610e5e565b60081c161515602086015215159084015260608301526080820152f35b5090346101555760209182600319360112610346578135928385526001815282828620610c036003820154151561103d565b0160ff81541684811015610e4b576002610c1d9114611139565b82516341945da760e01b81528481018690526001600160a01b03949083816024817f00000000000000000000000000000000000000000000000000000000000000008a165afa908115610e41578891610e07575b501594845190610c8082610ed2565b600282528536868401378615610e0057885b825160ff82161015610ded5790600186611fe08c959460051b16840101527f000000000000000000000000000000000000000000000000000000000000000016803b15610155578883610cf995895196879586948593633124a62b60e21b855284016110f6565b03925af18015610de357610dd0575b50805460ff191660031790558215610da6578151610d2581610eee565b600681526514185cdcd95960d21b828201525b8251938452828285015280518093850152855b838110610d9257505050906060818386837f3676ff42c1d36098de2b2393aaafe296ae82b095a911a5b16bd31ca62bd8ee0d9684010152601f80199101168101030190a280f35b818101830151858201606001528201610d4b565b8151610db181610eee565b600e81526d52616e646f6d206661696c75726560901b82820152610d38565b610ddc90969196610eaa565b945f610d08565b84513d89823e3d90fd5b634e487b7160e01b8a526032845260248afd5b6001610c92565b90508381813d8311610e3a575b610e1e8183610f0a565b81010312610e3657518015158103610e36575f610c71565b8780fd5b503d610e14565b85513d8a823e3d90fd5b634e487b7160e01b875260218552602487fd5b906004821015610e6b5752565b634e487b7160e01b5f52602160045260245ffd5b5f546001600160a01b03163303610e9257565b60405163118cdaa760e01b8152336004820152602490fd5b67ffffffffffffffff8111610ebe57604052565b634e487b7160e01b5f52604160045260245ffd5b6060810190811067ffffffffffffffff821117610ebe57604052565b6040810190811067ffffffffffffffff821117610ebe57604052565b90601f8019910116810190811067ffffffffffffffff821117610ebe57604052565b9081602091031261015157516001600160801b03811681036101515790565b5f90815260209060018252604081209160018060a01b039182845416604051928084600481630d34328160e11b958682525afa938415611032578394611013575b50600286015494856001600160801b0380961610159687610fb2575b5050505050505090565b8293949596975060010154169260046040518095819382525afa9283156110075792610fea575b50501610155f808080808080610fa8565b6110009250803d10610596576105878183610f0a565b5f80610fd9565b604051903d90823e3d90fd5b8161102b9295503d8611610596576105878183610f0a565b925f610f8c565b6040513d85823e3d90fd5b1561104457565b60405162461bcd60e51b815260206004820152601960248201527f436f6e646974696f6e206e6f7420696e697469616c697a6564000000000000006044820152606490fd5b9062093a80820180921161109957565b634e487b7160e01b5f52601160045260245ffd5b67ffffffffffffffff8111610ebe5760051b60200190565b8051600110156110d55760400190565b634e487b7160e01b5f52603260045260245ffd5b8051156110d55760200190565b906060916040810191815260209281604085809401528551809452019301915f5b828110611125575050505090565b835185529381019392810192600101611117565b1561114057565b60405162461bcd60e51b815260206004820152600d60248201526c496e76616c696420737461746560981b6044820152606490fd5b9061117f90611089565b42106113b05760409081519161119483610ed2565b600283526020808401908236833762093a8094856111b1826110e9565b525f8095816111bf846110c5565b52855194859363883bdbfd60e01b8552602485019086600487015251809152604485019190845b8782821061139057506001600160a01b039694938590039385935087169150505afa938415611387578594611270575b5050505061122d611226826110c5565b51916110e9565b5160060b9060060b0390667fffffffffffff8213667fffffffffffff1983121761125c575060060b0560060b90565b634e487b7160e01b81526011600452602490fd5b90919293503d8086863e6112848186610f0a565b840191818584031261138357845167ffffffffffffffff90818111610e365786019584601f88011215610e36578651966112bd886110ad565b976112ca8651998a610f0a565b80895287808a019160051b8301019187831161137f578801905b8282106113625750505085810151918211610e36570183601f820112156105e757848082519461131f611316876110ad565b91519182610f0a565b858152019360051b8201019384116105e7578401915b83831061134a5750505050505f808080611216565b82518281168103610e36578152918401918401611335565b81518060060b810361137b5781529088019088016112e4565b8b80fd5b8a80fd5b8580fd5b513d86823e3d90fd5b835163ffffffff1685528997508b965093840193909201916001016111e6565b60405162461bcd60e51b815260206004820152601960248201527f4f7261636c6520746f6f20796f756e6720666f722054574150000000000000006044820152606490fdfea2646970667358221220317603b8788ba18496461178ba8c75dfabe2c1f5248479f40ba56edb4c85c2b464736f6c63430008140033","linkReferences":{}},"methodIdentifiers":{"PASS_THRESHOLD()":"33f78d59","TWAP_PERIOD()":"7ca25184","checkLiquidity(bytes32)":"6d93149a","checkLowLiquidityFailure(bytes32)":"a88fd4e6","completeResolution(bytes32)":"1ecbb4ce","conditionalTokens()":"5bd9e299","conditions(bytes32)":"94dfeed0","getConditionState(bytes32)":"336c5122","initializeCondition(bytes32,address,address,uint256)":"8207cd1d","owner()":"8da5cb5b","performPriceCheck(bytes32)":"c5d983d3","randomFailure()":"8cde4f67","renounceOwnership()":"715018a6","requestRandomCheck(bytes32)":"4a51796e","transferOwnership(address)":"f2fde38b"},"id":11}