{"abi":[{"type":"constructor","inputs":[{"name":"_conditionalTokens","type":"address","internalType":"address"},{"name":"_initialProposerGuard","type":"address","internalType":"address"}],"stateMutability":"nonpayable"},{"type":"receive","stateMutability":"payable"},{"type":"function","name":"conditionalTokens","inputs":[],"outputs":[{"name":"","type":"address","internalType":"contract IConditionalTokens"}],"stateMutability":"view"},{"type":"function","name":"createProposal","inputs":[{"name":"_nftContract","type":"address","internalType":"address"},{"name":"_tokenId","type":"uint256","internalType":"uint256"},{"name":"_conditionId","type":"bytes32","internalType":"bytes32"},{"name":"_targets","type":"address[]","internalType":"address[]"},{"name":"_values","type":"uint256[]","internalType":"uint256[]"},{"name":"_data","type":"bytes[]","internalType":"bytes[]"},{"name":"_memo","type":"string","internalType":"string"}],"outputs":[{"name":"","type":"uint256","internalType":"uint256"}],"stateMutability":"nonpayable"},{"type":"function","name":"executeProposal","inputs":[{"name":"_proposalId","type":"uint256","internalType":"uint256"}],"outputs":[],"stateMutability":"nonpayable"},{"type":"function","name":"getProposal","inputs":[{"name":"_proposalId","type":"uint256","internalType":"uint256"}],"outputs":[{"name":"nftContract","type":"address","internalType":"address"},{"name":"tokenId","type":"uint256","internalType":"uint256"},{"name":"conditionId","type":"bytes32","internalType":"bytes32"},{"name":"targets","type":"address[]","internalType":"address[]"},{"name":"values","type":"uint256[]","internalType":"uint256[]"},{"name":"data","type":"bytes[]","internalType":"bytes[]"},{"name":"memo","type":"string","internalType":"string"},{"name":"executed","type":"bool","internalType":"bool"},{"name":"exists","type":"bool","internalType":"bool"}],"stateMutability":"view"},{"type":"function","name":"hasActiveProposal","inputs":[],"outputs":[{"name":"","type":"bool","internalType":"bool"}],"stateMutability":"view"},{"type":"function","name":"proposalCount","inputs":[],"outputs":[{"name":"","type":"uint256","internalType":"uint256"}],"stateMutability":"view"},{"type":"function","name":"proposals","inputs":[{"name":"","type":"uint256","internalType":"uint256"}],"outputs":[{"name":"nftContract","type":"address","internalType":"address"},{"name":"tokenId","type":"uint256","internalType":"uint256"},{"name":"conditionId","type":"bytes32","internalType":"bytes32"},{"name":"memo","type":"string","internalType":"string"},{"name":"executed","type":"bool","internalType":"bool"},{"name":"exists","type":"bool","internalType":"bool"}],"stateMutability":"view"},{"type":"function","name":"proposerGuard","inputs":[],"outputs":[{"name":"","type":"address","internalType":"address"}],"stateMutability":"view"},{"type":"function","name":"updateProposerGuard","inputs":[{"name":"_newProposerGuard","type":"address","internalType":"address"}],"outputs":[],"stateMutability":"nonpayable"},{"type":"event","name":"ProposalCreated","inputs":[{"name":"proposalId","type":"uint256","indexed":true,"internalType":"uint256"},{"name":"nftContract","type":"address","indexed":true,"internalType":"address"},{"name":"tokenId","type":"uint256","indexed":true,"internalType":"uint256"},{"name":"conditionId","type":"bytes32","indexed":false,"internalType":"bytes32"},{"name":"targets","type":"address[]","indexed":false,"internalType":"address[]"},{"name":"values","type":"uint256[]","indexed":false,"internalType":"uint256[]"},{"name":"data","type":"bytes[]","indexed":false,"internalType":"bytes[]"},{"name":"memo","type":"string","indexed":false,"internalType":"string"}],"anonymous":false},{"type":"event","name":"ProposalExecuted","inputs":[{"name":"proposalId","type":"uint256","indexed":true,"internalType":"uint256"}],"anonymous":false},{"type":"event","name":"ProposerGuardUpdated","inputs":[{"name":"oldProposerGuard","type":"address","indexed":true,"internalType":"address"},{"name":"newProposerGuard","type":"address","indexed":true,"internalType":"address"}],"anonymous":false}],"bytecode":{"object":"0x60a03461009357601f61158338819003918201601f19168301916001600160401b0383118484101761009757808492604094855283398101031261009357610052602061004b836100ab565b92016100ab565b6001600160a01b039182166080525f80546001600160a01b031916919092161790556040516114c390816100c08239608051818181610c6d01526111440152f35b5f80fd5b634e487b7160e01b5f52604160045260245ffd5b51906001600160a01b03821682036100935756fe6080604052600436101561001a575b3615610018575f80fd5b005b5f3560e01c8063013cf08b14610d945780630d61b51914610d7857806335feb53314610c9c5780635bd9e29914610c58578063c7f758a81461097c578063da35c6641461095f578063e38fea2814610938578063eb2ada8c146109165763f441ab830361000e57346105ae5760e03660031901126105ae5761009a610f55565b6064356001600160401b0381116105ae576100b9903690600401610f7f565b916084356001600160401b0381116105ae576100d9903690600401610f7f565b909260a4356001600160401b0381116105ae576100fa903690600401610f7f565b90916001600160401b0360c435116105ae5736602360c4350112156105ae576001600160401b0360c43560040135116105ae5736602460c4356004013560c4350101116105ae575f546001600160a01b031633036108dc5760ff6003541661089e5783871480610895575b156108505760015495604051806101208101106001600160401b036101208301111761065257610120810160409081526001600160a01b03881682526024356020830152604435908201526101b989610faf565b6101c66040519182610e55565b89815260208101368b60051b8601116105ae5784905b8b60051b8601821061083857505060608201526101f886610faf565b6102056040519182610e55565b86815260208101368860051b8501116105ae5783905b8860051b85018210610828575050608082015261023784610faf565b6102446040519182610e55565b84815260208101368660051b8801116105ae5786905b8660051b880182106107e957505060a08201526102833660c43560040135602460c43501610fe1565b60c08201525f60e08201526001610100820152875f52600260205260405f2060018060a01b038251166bffffffffffffffffffffffff60a01b825416178155602082015160018201556040820151600282015560608201518051906001600160401b03821161065257600160401b8211610652576020600384019161030d8484548186558561102d565b01905f5260205f205f5b8381106107cc575050505060808201518051906001600160401b03821161065257600160401b821161065257602060048401916103598484548186558561102d565b01905f5260205f205f5b8381106107b8575050505060a0820151805190600160401b8211610652576005830154826005850155808310610743575b5060200190600583015f5260205f20915f905b828210610666575050505060c08201518051906001600160401b038211610652576103e2826103d96006860154610e1d565b6006860161104e565b602090601f83116001146105e35760079392915f91836105d8575b50508160011b915f199060031b1c19161760068201555b019060e081015115159060ff61ff006101008554930151151560081b1692169061ffff191617179055600160ff196003541617600355610455600154611091565b600155604051978060a08a016044358b5260a060208c01525260c0890192905f5b8181106105b25750505087820360408901528482526001600160fb1b0385116105ae5784600595949392951b9060208601376020600584811b8601898103830160608b015291820183905282901b8101604090810195939485945f9392909201915b84841061053e57506020898989827ff4f929786d76ec50355a7101b8c74e20c00e482729a4a6b9e474f2637d229e558f8084036080820152806105336024359660018060a01b03169560c43560040135602460c435016110b3565b0390a4604051908152f35b90919293949596603f198360051b830182030184528735601e19883603018112156105ae576001600160401b0388820135116105ae57878101353603602089830101136105ae57602061059d60019383838c80829701359201016110b3565b9901940194019295949391906104d8565b5f80fd5b909193602080600192838060a01b036105ca89610f6b565b168152019501929101610476565b015190505f806103fd565b90600684015f5260205f20915f5b601f198516811061063a575091839160019360079695601f19811610610622575b505050811b016006820155610414565b01515f1960f88460031b161c191690555f8080610612565b919260206001819286850151815501940192016105f1565b634e487b7160e01b5f52604160045260245ffd5b80518051906001600160401b0382116106525761068d826106878854610e1d565b8861104e565b602090601f83116001146106d75792826001949360209386955f926106cc575b50505f19600383901b1c191690841b1787555b019401910190926103a7565b015190505f806106ad565b90865f5260205f20915f5b601f198516811061072b575083602093600196938796938794601f19811610610713575b505050811b0187556106c0565b01515f1960f88460031b161c191690555f8080610706565b919260206001819286850151815501940192016106e2565b600584015f5260205f20908382015b8183018110610762575050610394565b8061076f60019254610e1d565b8061077c575b5001610752565b601f9081811184146107945750505f81555b5f610775565b6107af5f9284845260208420920160051c8201858301611017565b8183555561078e565b600190602084519401938184015501610363565b82516001600160a01b031681830155602090920191600101610317565b6001600160401b038235116105ae5736601f83358a010112156105ae57602090819061081d3685358c018035908501610fe1565b81520191019061025a565b813581526020918201910161021b565b6020809161084584610f6b565b8152019101906101dc565b60405162461bcd60e51b815260206004820152601860248201527f4172726179206c656e67746873206d757374206d6174636800000000000000006044820152606490fd5b50818414610165565b60405162461bcd60e51b81526020600482015260166024820152754163746976652070726f706f73616c2065786973747360501b6044820152606490fd5b60405162461bcd60e51b8152602060048201526012602482015271139bdd081c1c9bdc1bdcd95c8819dd585c9960721b6044820152606490fd5b346105ae575f3660031901126105ae57602060ff600354166040519015158152f35b346105ae575f3660031901126105ae575f546040516001600160a01b039091168152602090f35b346105ae575f3660031901126105ae576020600154604051908152f35b346105ae5760203660031901126105ae576004355f52600260205260405f2060018060a01b0381541690600181015490600281015491600382019360078301549260405195868760208354928381520180935f5260205f20925f5b818110610c365750506109ec92500388610e55565b60405192839060048401948260208754928381520180975f5260205f20925f5b818110610c1d575050610a2192500383610e55565b600584015498610a308a610faf565b94610a3e6040519687610e55565b8a865260208601809b600583015f5260205f20915f905b828210610b7a57505050506006610a6c9101610e76565b966040519961012091828c01948c5260208c015260408b015260608a015251809152610140880192905f5b818110610b5b57505050602090878303608089015251918281520192905f5b818110610b455750505084820360a086015251808252602082019160208260051b82010196925f915b838310610b185787808860ff610afd8d8b85820360c0870152610f17565b91818116151560e085015260081c1615156101008301520390f35b9091929397602080610b36600193601f198682030187528c51610f17565b9a019301930191939290610adf565b8251855260209485019490920191600101610ab6565b82516001600160a01b0316855260209485019490920191600101610a97565b6040515f8554610b8981610e1d565b8084529060018116908115610bfa5750600114610bc3575b5060019282610bb585946020940382610e55565b815201940191019092610a55565b5f878152602081209092505b818310610be457505081016020016001610ba1565b6001816020925483868801015201920191610bcf565b60ff191660208581019190915291151560051b8401909101915060019050610ba1565b8454835260019485019487945060209093019201610a0c565b84546001600160a01b031683526001948501948c9450602090930192016109d7565b346105ae575f3660031901126105ae576040517f00000000000000000000000000000000000000000000000000000000000000006001600160a01b03168152602090f35b346105ae5760203660031901126105ae57610cb5610f55565b303303610d3b576001600160a01b03908116908115610d0757815f549182167f0f586ee96c8465ee852de9679817138ce54bfb534544c990dc1b143654df05335f80a36001600160a01b031916175f55005b60405162461bcd60e51b815260206004820152600c60248201526b5a65726f206164647265737360a01b6044820152606490fd5b60405162461bcd60e51b815260206004820152601560248201527413db9b1e481d1a1c9bdd59da081c1c9bdc1bdcd85b605a1b6044820152606490fd5b346105ae5760203660031901126105ae576100186004356110fc565b346105ae5760203660031901126105ae576004355f52600260205260405f2060018060a01b0381541660018201549160ff610e036002830154926007610ddc60068301610e76565b9101549360405196879687526020870152604086015260c0606086015260c0850190610f17565b918181161515608085015260081c16151560a08301520390f35b90600182811c92168015610e4b575b6020831014610e3757565b634e487b7160e01b5f52602260045260245ffd5b91607f1691610e2c565b90601f801991011681019081106001600160401b0382111761065257604052565b9060405191825f825492610e8984610e1d565b9081845260019485811690815f14610ef45750600114610eb4575b5050610eb292500383610e55565b565b909391505f52602090815f20935f915b818310610edc575050610eb293508201015f80610ea4565b85548884018501529485019487945091830191610ec4565b915050610eb294506020925060ff191682840152151560051b8201015f80610ea4565b91908251928382525f5b848110610f41575050825f602080949584010152601f8019910116010190565b602081830181015184830182015201610f21565b600435906001600160a01b03821682036105ae57565b35906001600160a01b03821682036105ae57565b9181601f840112156105ae578235916001600160401b0383116105ae576020808501948460051b0101116105ae57565b6001600160401b0381116106525760051b60200190565b6001600160401b03811161065257601f01601f191660200190565b929192610fed82610fc6565b91610ffb6040519384610e55565b8294818452818301116105ae578281602093845f960137010152565b818110611022575050565b5f8155600101611017565b9181811061103a57505050565b610eb2925f5260205f209182019101611017565b9190601f811161105d57505050565b610eb2925f5260205f20906020601f840160051c83019310611087575b601f0160051c0190611017565b909150819061107a565b5f19811461109f5760010190565b634e487b7160e01b5f52601160045260245ffd5b908060209392818452848401375f828201840152601f01601f1916010190565b80548210156110e8575f5260205f2001905f90565b634e487b7160e01b5f52603260045260245ffd5b90815f52600260205260405f209060078201805460ff8160081c16156114485760ff1661141057600283015460405163f88669bd60e01b815260048101919091525f816024817f00000000000000000000000000000000000000000000000000000000000000006001600160a01b03165afa908115611405575f91611375575b5060ff19600354166003558051600110156110e857600160408201511461136e578051156110e857602001515f190161132957805460ff191660011790555f5b60038301548110156112ff576111d581600385016110d3565b905460039190911b1c6001600160a01b03166111f482600486016110d3565b90549060031b1c61120883600587016110d3565b5090604051915f9080549061121c82610e1d565b91600181169081156112e857506001146112b6575b5050915f939181859403925af13d156112b1573d61124e81610fc6565b9061125c6040519283610e55565b81525f60203d92013e5b156112795761127490611091565b6111bc565b60405162461bcd60e51b815260206004820152601060248201526f115e1958dd5d1a5bdb8819985a5b195960821b6044820152606490fd5b611266565b9091505f5260205f205f905b8282106112d457505082018183611231565b6001816020925484880152019101906112c2565b60ff19168652505080151502830190508183611231565b509190507f712ae1383f79ac853f8d882153778e0260ef8f03b504e2866e0593e04d2b291f5f80a2565b60405162461bcd60e51b815260206004820152601760248201527f50726f706f73616c2073746174757320756e636c6561720000000000000000006044820152606490fd5b5050915050565b90503d805f833e6113868183610e55565b8101906020818303126105ae578051906001600160401b0382116105ae57019080601f830112156105ae5781516113bc81610faf565b926113ca6040519485610e55565b81845260208085019260051b8201019283116105ae57602001905b8282106113f5575050505f61117c565b81518152602091820191016113e5565b6040513d5f823e3d90fd5b60405162461bcd60e51b815260206004820152601060248201526f105b1c9958591e48195e1958dd5d195960821b6044820152606490fd5b60405162461bcd60e51b815260206004820152601760248201527f50726f706f73616c20646f6573206e6f742065786973740000000000000000006044820152606490fdfea2646970667358221220a77742bb57f0e65d05c51982efc59f3a3f73f22702149b0812ac9ce895eda22264736f6c63430008140033","linkReferences":{}},"methodIdentifiers":{"conditionalTokens()":"5bd9e299","createProposal(address,uint256,bytes32,address[],uint256[],bytes[],string)":"f441ab83","executeProposal(uint256)":"0d61b519","getProposal(uint256)":"c7f758a8","hasActiveProposal()":"eb2ada8c","proposalCount()":"da35c664","proposals(uint256)":"013cf08b","proposerGuard()":"e38fea28","updateProposerGuard(address)":"35feb533"},"id":10}