{"abi":[{"type":"constructor","inputs":[{"name":"coordinator","type":"address","internalType":"address"},{"name":"_subscriptionId","type":"uint64","internalType":"uint64"},{"name":"_keyHash","type":"bytes32","internalType":"bytes32"}],"stateMutability":"nonpayable"},{"type":"function","name":"owner","inputs":[],"outputs":[{"name":"","type":"address","internalType":"address"}],"stateMutability":"view"},{"type":"function","name":"proposalRandomness","inputs":[{"name":"","type":"bytes32","internalType":"bytes32"}],"outputs":[{"name":"","type":"uint256","internalType":"uint256"}],"stateMutability":"view"},{"type":"function","name":"rawFulfillRandomWords","inputs":[{"name":"requestId","type":"uint256","internalType":"uint256"},{"name":"randomWords","type":"uint256[]","internalType":"uint256[]"}],"outputs":[],"stateMutability":"nonpayable"},{"type":"function","name":"renounceOwnership","inputs":[],"outputs":[],"stateMutability":"nonpayable"},{"type":"function","name":"requestRandomFailureCheck","inputs":[{"name":"proposalId","type":"bytes32","internalType":"bytes32"}],"outputs":[{"name":"requestId","type":"uint256","internalType":"uint256"}],"stateMutability":"nonpayable"},{"type":"function","name":"requestToProposal","inputs":[{"name":"","type":"uint256","internalType":"uint256"}],"outputs":[{"name":"","type":"bytes32","internalType":"bytes32"}],"stateMutability":"view"},{"type":"function","name":"shouldProposalFail","inputs":[{"name":"proposalId","type":"bytes32","internalType":"bytes32"}],"outputs":[{"name":"","type":"bool","internalType":"bool"}],"stateMutability":"view"},{"type":"function","name":"transferOwnership","inputs":[{"name":"newOwner","type":"address","internalType":"address"}],"outputs":[],"stateMutability":"nonpayable"},{"type":"event","name":"OwnershipTransferred","inputs":[{"name":"previousOwner","type":"address","indexed":true,"internalType":"address"},{"name":"newOwner","type":"address","indexed":true,"internalType":"address"}],"anonymous":false},{"type":"event","name":"ProposalFailed","inputs":[{"name":"proposalId","type":"bytes32","indexed":false,"internalType":"bytes32"},{"name":"randomFailure","type":"bool","indexed":false,"internalType":"bool"}],"anonymous":false},{"type":"event","name":"RandomnessReceived","inputs":[{"name":"requestId","type":"uint256","indexed":false,"internalType":"uint256"},{"name":"randomness","type":"uint256","indexed":false,"internalType":"uint256"}],"anonymous":false},{"type":"event","name":"RandomnessRequested","inputs":[{"name":"requestId","type":"uint256","indexed":false,"internalType":"uint256"},{"name":"proposalId","type":"bytes32","indexed":false,"internalType":"bytes32"}],"anonymous":false},{"type":"error","name":"OnlyCoordinatorCanFulfill","inputs":[{"name":"have","type":"address","internalType":"address"},{"name":"want","type":"address","internalType":"address"}]},{"type":"error","name":"OwnableInvalidOwner","inputs":[{"name":"owner","type":"address","internalType":"address"}]},{"type":"error","name":"OwnableUnauthorizedAccount","inputs":[{"name":"account","type":"address","internalType":"address"}]}],"bytecode":{"object":"0x61010034610101576001600160401b03601f61073538819003918201601f191684019183831185841017610105578085926060946040528339810103126101015781516001600160a01b039290919083831690818403610101576020810151928316830361010157604001519260805233156100e9575f543360018060a01b03198216175f55604051943391167f8be0079c531659141344cd1fd0a4f28419497f9722a3daafe3b4186f6b6457e05f80a360a05260c05260e05261061b908161011a82396080518161044c015260a0518161031a015260c051816102cd015260e051816102a50152f35b604051631e4fbdf760e01b81525f6004820152602490fd5b5f80fd5b634e487b7160e01b5f52604160045260245ffdfe6080604081815260049081361015610015575f80fd5b5f92833560e01c9081631fe543e3146103d257508063213d9d9c1461027857806341945da7146101e2578063715018a6146101855780637f664db71461015d5780638da5cb5b14610131578063a69d2ca4146101095763f2fde38b14610079575f80fd5b34610105576020366003190112610105576001600160a01b03823581811693919290849003610101576100aa6105ba565b83156100eb57505082546001600160a01b0319811683178455167f8be0079c531659141344cd1fd0a4f28419497f9722a3daafe3b4186f6b6457e08380a380f35b51631e4fbdf760e01b8152908101849052602490fd5b8480fd5b8280fd5b5090346101055760203660031901126101055760209282913581526002845220549051908152f35b838234610159578160031936011261015957905490516001600160a01b039091168152602090f35b5080fd5b5090346101055760203660031901126101055760209282913581526001845220549051908152f35b83346101df57806003193601126101df5761019e6105ba565b80546001600160a01b03198116825581906001600160a01b03167f8be0079c531659141344cd1fd0a4f28419497f9722a3daafe3b4186f6b6457e08280a380f35b80fd5b5091346101df5760203660031901126101df578290823581526002602052205490811561023557507f0ccccccccccccccccccccccccccccccccccccccccccccccccccccccccccccccc6020925191108152f35b606490602084519162461bcd60e51b8352820152601c60248201527f52616e646f6d6e657373206e6f742079657420617661696c61626c65000000006044820152fd5b503461010557602092836003193601126101df578235906102976105ba565b82516305d3b1d360e41b81527f0000000000000000000000000000000000000000000000000000000000000000948101949094527f000000000000000000000000000000000000000000000000000000000000000067ffffffffffffffff16602485015260036044850152620186a0606485015260016084850152848460a481847f00000000000000000000000000000000000000000000000000000000000000006001600160a01b03165af19384156103c6578194610393575b50817f587602b661da57eff43c58d2ebb4b7c66d08862f786faf29f390136b3309a1289284838782955260018952205581519085825286820152a151908152f35b9093508481813d83116103bf575b6103ab8183610584565b810103126103bb57519281610352565b8380fd5b503d6103a1565b508251903d90823e3d90fd5b929050346103bb57816003193601126103bb57803590602480359167ffffffffffffffff958684116105805736602385011215610580578382013596871161056e578660051b9360209761042889870184610584565b82528782018481968301019136831161056a57858a9101915b83831061055a5750507f00000000000000000000000000000000000000000000000000000000000000006001600160a01b03169150503381900361053e5750511561052d5750507f0ccccccccccccccccccccccccccccccccccccccccccccccccccccccccccccccc9051828652600185527f4235fc540c899ae91eade70d636591126a477a30a8dc25ae4489f396de2a51038480882054948589526002885283828a205581519081528388820152a1106104f9578380f35b60017faed4643e17a2da33ab78bc89eb94802d2da01f563f597253cb726243c6640732938351928352820152a15f80808380f35b634e487b7160e01b87526032905285fd5b905060449286519263073e64fd60e21b84523390840152820152fd5b82358152918101918a9101610441565b8a80fd5b50634e487b7160e01b87526041905285fd5b8780fd5b90601f8019910116810190811067ffffffffffffffff8211176105a657604052565b634e487b7160e01b5f52604160045260245ffd5b5f546001600160a01b031633036105cd57565b60405163118cdaa760e01b8152336004820152602490fdfea26469706673582212203c2aab4c8609d818b7606eb896154e563aa9f543f7f639d02365a94c599f751564736f6c63430008140033","linkReferences":{}},"methodIdentifiers":{"owner()":"8da5cb5b","proposalRandomness(bytes32)":"a69d2ca4","rawFulfillRandomWords(uint256,uint256[])":"1fe543e3","renounceOwnership()":"715018a6","requestRandomFailureCheck(bytes32)":"213d9d9c","requestToProposal(uint256)":"7f664db7","shouldProposalFail(bytes32)":"41945da7","transferOwnership(address)":"f2fde38b"},"id":13}