{"abi":[{"type":"constructor","inputs":[{"name":"_conditionalTokens","type":"address","internalType":"address"},{"name":"_wrapped1155Factory","type":"address","internalType":"address"},{"name":"_governor","type":"address","internalType":"address payable"},{"name":"_minimumOracleLiquidity","type":"uint256","internalType":"uint256"},{"name":"_initialProposer","type":"address","internalType":"address"}],"stateMutability":"nonpayable"},{"type":"function","name":"conditionalTokens","inputs":[],"outputs":[{"name":"","type":"address","internalType":"contract IConditionalTokens"}],"stateMutability":"view"},{"type":"function","name":"createProposal","inputs":[{"name":"nftId","type":"uint256","internalType":"uint256"},{"name":"nftContract","type":"address","internalType":"address"},{"name":"conditionId","type":"bytes32","internalType":"bytes32"},{"name":"oracle","type":"address","internalType":"contract FutarchyOracle"},{"name":"outcomeToken","type":"address","internalType":"contract IERC20"},{"name":"currencyToken","type":"address","internalType":"contract IERC20"},{"name":"targets","type":"address[]","internalType":"address[]"},{"name":"values","type":"uint256[]","internalType":"uint256[]"},{"name":"data","type":"bytes[]","internalType":"bytes[]"},{"name":"memo","type":"string","internalType":"string"}],"outputs":[{"name":"","type":"uint256","internalType":"uint256"}],"stateMutability":"nonpayable"},{"type":"function","name":"governor","inputs":[],"outputs":[{"name":"","type":"address","internalType":"contract FutarchyGovernor"}],"stateMutability":"view"},{"type":"function","name":"minimumOracleLiquidity","inputs":[],"outputs":[{"name":"","type":"uint256","internalType":"uint256"}],"stateMutability":"view"},{"type":"function","name":"owner","inputs":[],"outputs":[{"name":"","type":"address","internalType":"address"}],"stateMutability":"view"},{"type":"function","name":"proposer","inputs":[],"outputs":[{"name":"","type":"address","internalType":"address"}],"stateMutability":"view"},{"type":"function","name":"renounceOwnership","inputs":[],"outputs":[],"stateMutability":"nonpayable"},{"type":"function","name":"transferOwnership","inputs":[{"name":"newOwner","type":"address","internalType":"address"}],"outputs":[],"stateMutability":"nonpayable"},{"type":"function","name":"updateProposer","inputs":[{"name":"_newProposer","type":"address","internalType":"address"}],"outputs":[],"stateMutability":"nonpayable"},{"type":"function","name":"wrapped1155Factory","inputs":[],"outputs":[{"name":"","type":"address","internalType":"contract IWrapped1155Factory"}],"stateMutability":"view"},{"type":"event","name":"OwnershipTransferred","inputs":[{"name":"previousOwner","type":"address","indexed":true,"internalType":"address"},{"name":"newOwner","type":"address","indexed":true,"internalType":"address"}],"anonymous":false},{"type":"event","name":"ProposalValidated","inputs":[{"name":"conditionId","type":"bytes32","indexed":true,"internalType":"bytes32"},{"name":"passPool","type":"address","indexed":true,"internalType":"address"},{"name":"failPool","type":"address","indexed":true,"internalType":"address"}],"anonymous":false},{"type":"event","name":"ProposerUpdated","inputs":[{"name":"oldProposer","type":"address","indexed":true,"internalType":"address"},{"name":"newProposer","type":"address","indexed":true,"internalType":"address"}],"anonymous":false},{"type":"error","name":"OwnableInvalidOwner","inputs":[{"name":"owner","type":"address","internalType":"address"}]},{"type":"error","name":"OwnableUnauthorizedAccount","inputs":[{"name":"account","type":"address","internalType":"address"}]}],"bytecode":{"object":"0x61010034620001b457601f6200194b38819003918201601f19168301916001600160401b03831184841017620001b85780849260a094604052833981010312620001b4576200004e81620001cc565b6200005c60208301620001cc565b604083015190926001600160a01b03918281169190829003620001b4576200008c608060608301519201620001cc565b9133156200019c57835f54968160018060a01b03199733898b16175f5560405199823391167f8be0079c531659141344cd1fd0a4f28419497f9722a3daafe3b4186f6b6457e05f80a3166080521660a05260c05260e052169060015416176001556117699081620001e282396080518181816102af01528181610420015281816104d10152818161053b0152818161059f0152818161060801528181610672015281816106db015281816107460152818161078e01528181610824015281816108bc0152610954015260a0518181816107dc015281816108740152818161090c015281816109a3015261150d015260c051818181610c64015261154e015260e0518181816101d10152610b5e0152f35b604051631e4fbdf760e01b81525f6004820152602490fd5b5f80fd5b634e487b7160e01b5f52604160045260245ffd5b51906001600160a01b0382168203620001b45756fe6080806040526004361015610012575f80fd5b5f3560e01c9081630c340a241461153c57508063150c5b97146114f857806325346b88146102de5780635bd9e2991461029a578063715018a6146102435780638da5cb5b1461021c578063a8e4fb90146101f4578063b67ca41e146101ba578063ddf9f09f146101185763f2fde38b1461008a575f80fd5b34610114576020366003190112610114576100a361157d565b6100ab6115c4565b6001600160a01b039081169081156100fc575f54826bffffffffffffffffffffffff60a01b8216175f55167f8be0079c531659141344cd1fd0a4f28419497f9722a3daafe3b4186f6b6457e05f80a3005b604051631e4fbdf760e01b81525f6004820152602490fd5b5f80fd5b346101145760203660031901126101145761013161157d565b6101396115c4565b6001600160a01b0390811690811561018657816001549182167f2aff93bdeb589eb5eb68d8593ccc2098b55ab6615c857a059aa354bda290d0715f80a36001600160a01b03191617600155005b60405162461bcd60e51b815260206004820152600c60248201526b5a65726f206164647265737360a01b6044820152606490fd5b34610114575f3660031901126101145760206040517f00000000000000000000000000000000000000000000000000000000000000008152f35b34610114575f366003190112610114576001546040516001600160a01b039091168152602090f35b34610114575f366003190112610114575f546040516001600160a01b039091168152602090f35b34610114575f3660031901126101145761025b6115c4565b5f80546001600160a01b0319811682556001600160a01b03167f8be0079c531659141344cd1fd0a4f28419497f9722a3daafe3b4186f6b6457e08280a3005b34610114575f366003190112610114576040517f00000000000000000000000000000000000000000000000000000000000000006001600160a01b03168152602090f35b3461011457610140366003190112610114576024356001600160a01b0381168103610114576064356001600160a01b0381168103610114576084356001600160a01b03811681036101145760a4356001600160a01b03811681036101145760c43567ffffffffffffffff81116101145761035c903690600401611593565b60e49391933567ffffffffffffffff81116101145761037f903690600401611593565b90916101043567ffffffffffffffff8111610114576103a2903690600401611593565b94909567ffffffffffffffff610124351161011457366023610124350112156101145767ffffffffffffffff61012435600401351161011457366024610124356004013561012435010111610114576001546001600160a01b031633036114c45760405163094dfeed60e41b815260443560048201526080816024817f00000000000000000000000000000000000000000000000000000000000000006001600160a01b03165afa908115610d51575f9161148b575b506001600160a01b038a81169116036114575760405163094dfeed60e41b8152604435600482015260c0816024816001600160a01b038e165afa928315610d51575f925f925f9561142b575b506001600160a01b038416156113e657604051636a16e06160e11b815260443560048201526020816024817f00000000000000000000000000000000000000000000000000000000000000006001600160a01b03165afa8015610d51575f906113b3575b600291500361136e5760405163856296f760e01b81525f60048201526044803560248301526001908201526020816064817f00000000000000000000000000000000000000000000000000000000000000006001600160a01b03165afa908115610d51575f9161133c575b5060405163856296f760e01b81525f6004820152604480356024830152600290820152916020836064817f00000000000000000000000000000000000000000000000000000000000000006001600160a01b03165afa928315610d51575f93611308575b5060405163039dd75360e41b81526001600160a01b03851660048201526024810183905293602085806044810103817f00000000000000000000000000000000000000000000000000000000000000006001600160a01b03165afa948515610d51575f956112d1575b5060405163039dd75360e41b81526001600160a01b0390911660048201526024810184905290602082806044810103817f00000000000000000000000000000000000000000000000000000000000000006001600160a01b03165afa918215610d51575f9261129a575b5060405163039dd75360e41b81526001600160a01b03821660048201526024810193909352602083806044810103817f00000000000000000000000000000000000000000000000000000000000000006001600160a01b03165afa928315610d51575f93611264575b5060405163039dd75360e41b81526001600160a01b039091166004820152602481019390935260208380604481015b03817f00000000000000000000000000000000000000000000000000000000000000006001600160a01b03165afa928315610d51575f9361122d575b50604051630459752f60e11b81527f00000000000000000000000000000000000000000000000000000000000000006001600160a01b031660048201526024810194909452606060448501525f6064850152602084806084810103817f00000000000000000000000000000000000000000000000000000000000000006001600160a01b03165afa938415610d51575f946111e9575b50604051630459752f60e11b81527f00000000000000000000000000000000000000000000000000000000000000006001600160a01b031660048201526024810191909152606060448201525f60648201529060208280608481015b03817f00000000000000000000000000000000000000000000000000000000000000006001600160a01b03165afa918215610d51575f926111a9575b50604051630459752f60e11b81527f00000000000000000000000000000000000000000000000000000000000000006001600160a01b031660048201526024810191909152606060448201525f60648201529060208280608481015b03817f00000000000000000000000000000000000000000000000000000000000000006001600160a01b03165afa918215610d51575f92611167575b50604051630459752f60e11b81527f00000000000000000000000000000000000000000000000000000000000000006001600160a01b031660048201526024810193909352606060448401525f606484015260208380608481015b03817f00000000000000000000000000000000000000000000000000000000000000006001600160a01b03165afa928315610d51575f9361112b575b50604051630dfe168160e01b8152916020836004816001600160a01b038b165afa928315610d51575f936110ef575b5060405163d21220a760e01b8152906020826004816001600160a01b038c165afa918215610d51575f926110b3575b50604051630dfe168160e01b8152936020856004816001600160a01b038c165afa948515610d51575f95611077575b5060405163d21220a760e01b8152966020886004816001600160a01b038d165afa978815610d51575f9861103b575b506001600160a01b0391821691168181149384611025575b8415610ff4575b5050505015610faf576001600160a01b0391821691168181149384610f99575b8415610f68575b5050505015610f2357604051633850c7bd60e01b81529160e090839060049082906001600160a01b03165afa918215610d51575f92610ef8575b50604051633850c7bd60e01b81529060e090829060049082906001600160a01b03165afa908115610d51575f91610ec3575b506001600160a01b03908116911603610e7e577f000000000000000000000000000000000000000000000000000000000000000011610e395760405163f441ab8360e01b81526001600160a01b039098166004808a0191909152356024890152604480359089015260e0606489015260e48801819052610104880195905f905b808210610e03575050508685036003190160848801528085526001600160fb1b038111610114579186949260059492941b8094602085013780602085850101601c87878701030160a4880152526040848401019360408260051b82860101019483945f925b848410610d9157888a60208280610c5f8d6003198382030160c4840152610124356004013560246101243501611625565b03815f7f00000000000000000000000000000000000000000000000000000000000000006001600160a01b03165af1918215610d51575f92610d5c575b5060405163094dfeed60e41b81526044356004820152919060c090839060249082906001600160a01b03165afa908115610d51576020925f905f93610d19575b50604051926001600160a01b0390811691166044357f30d3c8547536e80845932e6848f0daf9e5d6de98a74ef522bd2621ceba3de3c45f80a48152f35b9050610d3e91925060c03d60c011610d4a575b610d3681836115ef565b810190611666565b50505050919084610cdc565b503d610d2c565b6040513d5f823e3d90fd5b91506020823d602011610d89575b81610d77602093836115ef565b810103126101145790519060c0610c9c565b3d9150610d6a565b9193959750919395603f1982840182030184528735601e19883603018112156101145767ffffffffffffffff88820135116101145787810135360360208983010113610114576020610def60019383838c8082970135920101611625565b990194019401918997969491959395610c2e565b91969091908735906001600160a01b0382168203610114576001600160a01b039091168152602090810197019160010190610bc9565b60405162461bcd60e51b815260206004820152601a60248201527f496e73756666696369656e74206d696e206c69717569646974790000000000006044820152606490fd5b60405162461bcd60e51b815260206004820152601960248201527f496e697469616c20707269636573206d757374206d61746368000000000000006044820152606490fd5b610ee5915060e03d60e011610ef1575b610edd81836115ef565b8101906116c2565b5050505050508b610b49565b503d610ed3565b6004919250610f1560e091823d8411610ef157610edd81836115ef565b505050505050929150610b17565b60405162461bcd60e51b815260206004820152601760248201527f4e6f20706f6f6c20746f6b656e73206d69736d617463680000000000000000006044820152606490fd5b6001600160a01b03161492509082610f86575b50508c808080610add565b6001600160a01b03161490508c80610f7b565b6001600160a01b03808216908516149450610ad6565b60405162461bcd60e51b815260206004820152601860248201527f59657320706f6f6c20746f6b656e73206d69736d6174636800000000000000006044820152606490fd5b6001600160a01b03161492509082611012575b50505f808080610ab6565b6001600160a01b03161490505f80611007565b6001600160a01b03808216908516149450610aaf565b9097506020813d60201161106f575b81611057602093836115ef565b810103126101145761106890611645565b965f610a97565b3d915061104a565b9094506020813d6020116110ab575b81611093602093836115ef565b81010312610114576110a490611645565b935f610a68565b3d9150611086565b9091506020813d6020116110e7575b816110cf602093836115ef565b81010312610114576110e090611645565b905f610a39565b3d91506110c2565b9092506020813d602011611123575b8161110b602093836115ef565b810103126101145761111c90611645565b915f610a0a565b3d91506110fe565b9092506020813d60201161115f575b81611147602093836115ef565b810103126101145761115890611645565b918f6109db565b3d915061113a565b9291506020833d6020116111a1575b81611183602093836115ef565b8101031261011457602061119961099f94611645565b929350610944565b3d9150611176565b91506020823d6020116111e1575b816111c4602093836115ef565b810103126101145760206111da61090893611645565b92506108ac565b3d91506111b7565b919093506020823d602011611225575b81611206602093836115ef565b8101031261011457602061121c61087093611645565b94919250610814565b3d91506111f9565b9392506020843d60201161125c575b81611249602093836115ef565b810103126101145792519192602061077e565b3d915061123c565b9092506020813d602011611292575b81611280602093836115ef565b81010312610114575191610742610713565b3d9150611273565b9291506020833d6020116112c9575b816112b6602093836115ef565b81010312610114579151909160206106aa565b3d91506112a9565b919094506020823d602011611300575b816112ee602093836115ef565b81010312610114579051936020610640565b3d91506112e1565b9092506020813d602011611334575b81611324602093836115ef565b810103126101145751918f6105d7565b3d9150611317565b90506020813d602011611366575b81611357602093836115ef565b8101031261011457518e610573565b3d915061134a565b60405162461bcd60e51b815260206004820152601c60248201527f4d75737420686176652065786163746c792032206f7574636f6d6573000000006044820152606490fd5b506020813d6020116113de575b816113cd602093836115ef565b810103126101145760029051610508565b3d91506113c0565b60405162461bcd60e51b815260206004820152601960248201527f436f6e646974696f6e206e6f7420696e697469616c697a6564000000000000006044820152606490fd5b9193509350611449915060c03d60c011610d4a57610d3681836115ef565b50505091929091938d6104a4565b60405162461bcd60e51b815260206004820152600c60248201526b57726f6e67206f7261636c6560a01b6044820152606490fd5b90506080813d82116114bc575b816114a5608093836115ef565b81010312610114576114b690611645565b8b610458565b3d9150611498565b60405162461bcd60e51b815260206004820152600c60248201526b2737ba10383937b837b9b2b960a11b6044820152606490fd5b34610114575f366003190112610114576040517f00000000000000000000000000000000000000000000000000000000000000006001600160a01b03168152602090f35b34610114575f366003190112610114577f00000000000000000000000000000000000000000000000000000000000000006001600160a01b03168152602090f35b600435906001600160a01b038216820361011457565b9181601f840112156101145782359167ffffffffffffffff8311610114576020808501948460051b01011161011457565b5f546001600160a01b031633036115d757565b60405163118cdaa760e01b8152336004820152602490fd5b90601f8019910116810190811067ffffffffffffffff82111761161157604052565b634e487b7160e01b5f52604160045260245ffd5b908060209392818452848401375f828201840152601f01601f1916010190565b51906001600160a01b038216820361011457565b5190811515820361011457565b91908260c09103126101145761167b82611645565b9161168860208201611645565b91604082015191606081015191608082015160048110156101145760a06116b0919301611659565b90565b519061ffff8216820361011457565b908160e09103126101145780516001600160a01b0381168103610114579160208201518060020b810361011457916116fc604082016116b3565b91611709606083016116b3565b91611716608082016116b3565b9160a082015160ff811681036101145760c06116b091930161165956fea26469706673582212200a940165398121546d39c95869768c9072b2e429426025ff26d9e527664f1f8664736f6c63430008140033","linkReferences":{}},"methodIdentifiers":{"conditionalTokens()":"5bd9e299","createProposal(uint256,address,bytes32,address,address,address,address[],uint256[],bytes[],string)":"25346b88","governor()":"0c340a24","minimumOracleLiquidity()":"b67ca41e","owner()":"8da5cb5b","proposer()":"a8e4fb90","renounceOwnership()":"715018a6","transferOwnership(address)":"f2fde38b","updateProposer(address)":"ddf9f09f","wrapped1155Factory()":"150c5b97"},"id":12}